{
  "_format": "hh-sol-artifact-1",
  "contractName": "RedAavelopes",
  "sourceName": "contracts/RedAavelopes.sol",
  "abi": [
    {
      "inputs": [],
      "stateMutability": "nonpayable",
      "type": "constructor"
    },
    {
      "anonymous": false,
      "inputs": [
        {
          "indexed": true,
          "internalType": "address",
          "name": "owner",
          "type": "address"
        },
        {
          "indexed": true,
          "internalType": "address",
          "name": "approved",
          "type": "address"
        },
        {
          "indexed": true,
          "internalType": "uint256",
          "name": "tokenId",
          "type": "uint256"
        }
      ],
      "name": "Approval",
      "type": "event"
    },
    {
      "anonymous": false,
      "inputs": [
        {
          "indexed": true,
          "internalType": "address",
          "name": "owner",
          "type": "address"
        },
        {
          "indexed": true,
          "internalType": "address",
          "name": "operator",
          "type": "address"
        },
        {
          "indexed": false,
          "internalType": "bool",
          "name": "approved",
          "type": "bool"
        }
      ],
      "name": "ApprovalForAll",
      "type": "event"
    },
    {
      "anonymous": false,
      "inputs": [
        {
          "indexed": true,
          "internalType": "address",
          "name": "from",
          "type": "address"
        },
        {
          "indexed": true,
          "internalType": "address",
          "name": "to",
          "type": "address"
        },
        {
          "indexed": true,
          "internalType": "uint256",
          "name": "tokenId",
          "type": "uint256"
        }
      ],
      "name": "Transfer",
      "type": "event"
    },
    {
      "inputs": [
        {
          "internalType": "address",
          "name": "to",
          "type": "address"
        },
        {
          "internalType": "uint256",
          "name": "tokenId",
          "type": "uint256"
        }
      ],
      "name": "approve",
      "outputs": [],
      "stateMutability": "nonpayable",
      "type": "function"
    },
    {
      "inputs": [
        {
          "internalType": "address",
          "name": "owner",
          "type": "address"
        }
      ],
      "name": "balanceOf",
      "outputs": [
        {
          "internalType": "uint256",
          "name": "",
          "type": "uint256"
        }
      ],
      "stateMutability": "view",
      "type": "function"
    },
    {
      "inputs": [],
      "name": "baseURI",
      "outputs": [
        {
          "internalType": "string",
          "name": "",
          "type": "string"
        }
      ],
      "stateMutability": "view",
      "type": "function"
    },
    {
      "inputs": [
        {
          "internalType": "uint256",
          "name": "_tokenId",
          "type": "uint256"
        }
      ],
      "name": "burn",
      "outputs": [],
      "stateMutability": "nonpayable",
      "type": "function"
    },
    {
      "inputs": [
        {
          "internalType": "uint256",
          "name": "_tokenId",
          "type": "uint256"
        }
      ],
      "name": "getAmountAsOfNow",
      "outputs": [
        {
          "internalType": "uint256",
          "name": "",
          "type": "uint256"
        }
      ],
      "stateMutability": "view",
      "type": "function"
    },
    {
      "inputs": [
        {
          "internalType": "uint256",
          "name": "_tokenId",
          "type": "uint256"
        }
      ],
      "name": "getAmountAsOfUnlock",
      "outputs": [
        {
          "internalType": "uint256",
          "name": "",
          "type": "uint256"
        }
      ],
      "stateMutability": "view",
      "type": "function"
    },
    {
      "inputs": [
        {
          "internalType": "uint256",
          "name": "tokenId",
          "type": "uint256"
        }
      ],
      "name": "getApproved",
      "outputs": [
        {
          "internalType": "address",
          "name": "",
          "type": "address"
        }
      ],
      "stateMutability": "view",
      "type": "function"
    },
    {
      "inputs": [
        {
          "internalType": "uint256",
          "name": "_tokenId",
          "type": "uint256"
        }
      ],
      "name": "getBalance",
      "outputs": [
        {
          "internalType": "uint256",
          "name": "",
          "type": "uint256"
        }
      ],
      "stateMutability": "view",
      "type": "function"
    },
    {
      "inputs": [
        {
          "internalType": "uint256",
          "name": "_tokenId",
          "type": "uint256"
        }
      ],
      "name": "getDepositTimestamp",
      "outputs": [
        {
          "internalType": "uint256",
          "name": "",
          "type": "uint256"
        }
      ],
      "stateMutability": "view",
      "type": "function"
    },
    {
      "inputs": [
        {
          "internalType": "uint256",
          "name": "_tokenId",
          "type": "uint256"
        }
      ],
      "name": "getOriginalAmount",
      "outputs": [
        {
          "internalType": "uint256",
          "name": "",
          "type": "uint256"
        }
      ],
      "stateMutability": "view",
      "type": "function"
    },
    {
      "inputs": [
        {
          "internalType": "uint256",
          "name": "_tokenId",
          "type": "uint256"
        }
      ],
      "name": "getSvg",
      "outputs": [
        {
          "internalType": "string",
          "name": "",
          "type": "string"
        }
      ],
      "stateMutability": "view",
      "type": "function"
    },
    {
      "inputs": [
        {
          "internalType": "uint256",
          "name": "_tokenId",
          "type": "uint256"
        }
      ],
      "name": "getUnlockTimestamp",
      "outputs": [
        {
          "internalType": "uint256",
          "name": "",
          "type": "uint256"
        }
      ],
      "stateMutability": "view",
      "type": "function"
    },
    {
      "inputs": [
        {
          "internalType": "address",
          "name": "owner",
          "type": "address"
        },
        {
          "internalType": "address",
          "name": "operator",
          "type": "address"
        }
      ],
      "name": "isApprovedForAll",
      "outputs": [
        {
          "internalType": "bool",
          "name": "",
          "type": "bool"
        }
      ],
      "stateMutability": "view",
      "type": "function"
    },
    {
      "inputs": [
        {
          "internalType": "uint256",
          "name": "_amount",
          "type": "uint256"
        },
        {
          "internalType": "uint256",
          "name": "_unlockTimestamp",
          "type": "uint256"
        }
      ],
      "name": "mintWithDai",
      "outputs": [
        {
          "internalType": "uint256",
          "name": "",
          "type": "uint256"
        }
      ],
      "stateMutability": "nonpayable",
      "type": "function"
    },
    {
      "inputs": [],
      "name": "name",
      "outputs": [
        {
          "internalType": "string",
          "name": "",
          "type": "string"
        }
      ],
      "stateMutability": "view",
      "type": "function"
    },
    {
      "inputs": [
        {
          "internalType": "uint256",
          "name": "tokenId",
          "type": "uint256"
        }
      ],
      "name": "ownerOf",
      "outputs": [
        {
          "internalType": "address",
          "name": "",
          "type": "address"
        }
      ],
      "stateMutability": "view",
      "type": "function"
    },
    {
      "inputs": [
        {
          "internalType": "address",
          "name": "from",
          "type": "address"
        },
        {
          "internalType": "address",
          "name": "to",
          "type": "address"
        },
        {
          "internalType": "uint256",
          "name": "tokenId",
          "type": "uint256"
        }
      ],
      "name": "safeTransferFrom",
      "outputs": [],
      "stateMutability": "nonpayable",
      "type": "function"
    },
    {
      "inputs": [
        {
          "internalType": "address",
          "name": "from",
          "type": "address"
        },
        {
          "internalType": "address",
          "name": "to",
          "type": "address"
        },
        {
          "internalType": "uint256",
          "name": "tokenId",
          "type": "uint256"
        },
        {
          "internalType": "bytes",
          "name": "_data",
          "type": "bytes"
        }
      ],
      "name": "safeTransferFrom",
      "outputs": [],
      "stateMutability": "nonpayable",
      "type": "function"
    },
    {
      "inputs": [
        {
          "internalType": "address",
          "name": "operator",
          "type": "address"
        },
        {
          "internalType": "bool",
          "name": "approved",
          "type": "bool"
        }
      ],
      "name": "setApprovalForAll",
      "outputs": [],
      "stateMutability": "nonpayable",
      "type": "function"
    },
    {
      "inputs": [
        {
          "internalType": "bytes4",
          "name": "interfaceId",
          "type": "bytes4"
        }
      ],
      "name": "supportsInterface",
      "outputs": [
        {
          "internalType": "bool",
          "name": "",
          "type": "bool"
        }
      ],
      "stateMutability": "view",
      "type": "function"
    },
    {
      "inputs": [],
      "name": "symbol",
      "outputs": [
        {
          "internalType": "string",
          "name": "",
          "type": "string"
        }
      ],
      "stateMutability": "view",
      "type": "function"
    },
    {
      "inputs": [
        {
          "internalType": "uint256",
          "name": "index",
          "type": "uint256"
        }
      ],
      "name": "tokenByIndex",
      "outputs": [
        {
          "internalType": "uint256",
          "name": "",
          "type": "uint256"
        }
      ],
      "stateMutability": "view",
      "type": "function"
    },
    {
      "inputs": [
        {
          "internalType": "address",
          "name": "owner",
          "type": "address"
        },
        {
          "internalType": "uint256",
          "name": "index",
          "type": "uint256"
        }
      ],
      "name": "tokenOfOwnerByIndex",
      "outputs": [
        {
          "internalType": "uint256",
          "name": "",
          "type": "uint256"
        }
      ],
      "stateMutability": "view",
      "type": "function"
    },
    {
      "inputs": [
        {
          "internalType": "uint256",
          "name": "tokenId",
          "type": "uint256"
        }
      ],
      "name": "tokenURI",
      "outputs": [
        {
          "internalType": "string",
          "name": "",
          "type": "string"
        }
      ],
      "stateMutability": "view",
      "type": "function"
    },
    {
      "inputs": [],
      "name": "totalSupply",
      "outputs": [
        {
          "internalType": "uint256",
          "name": "",
          "type": "uint256"
        }
      ],
      "stateMutability": "view",
      "type": "function"
    },
    {
      "inputs": [
        {
          "internalType": "address",
          "name": "from",
          "type": "address"
        },
        {
          "internalType": "address",
          "name": "to",
          "type": "address"
        },
        {
          "internalType": "uint256",
          "name": "tokenId",
          "type": "uint256"
        }
      ],
      "name": "transferFrom",
      "outputs": [],
      "stateMutability": "nonpayable",
      "type": "function"
    }
  ],
  "bytecode": "0x60806040523480156200001157600080fd5b506040518060400160405280600d81526020017f52656420416176656c6f706573000000000000000000000000000000000000008152506040518060400160405280600781526020017f5245444141564500000000000000000000000000000000000000000000000000815250620000966301ffc9a760e01b6200015960201b60201c565b8160069080519060200190620000ae92919062000262565b508060079080519060200190620000c792919062000262565b50620000e06380ac58cd60e01b6200015960201b60201c565b620000f8635b5e139f60e01b6200015960201b60201c565b6200011063780e9d6360e01b6200015960201b60201c565b505033600e60006101000a81548173ffffffffffffffffffffffffffffffffffffffff021916908373ffffffffffffffffffffffffffffffffffffffff16021790555062000308565b63ffffffff60e01b817bffffffffffffffffffffffffffffffffffffffffffffffffffffffff19161415620001f6576040517f08c379a000000000000000000000000000000000000000000000000000000000815260040180806020018281038252601c8152602001807f4552433136353a20696e76616c696420696e746572666163652069640000000081525060200191505060405180910390fd5b6001600080837bffffffffffffffffffffffffffffffffffffffffffffffffffffffff19167bffffffffffffffffffffffffffffffffffffffffffffffffffffffff1916815260200190815260200160002060006101000a81548160ff02191690831515021790555050565b828054600181600116156101000203166002900490600052602060002090601f016020900481019282601f10620002a557805160ff1916838001178555620002d6565b82800160010185558215620002d6579182015b82811115620002d5578251825591602001919060010190620002b8565b5b509050620002e59190620002e9565b5090565b5b8082111562000304576000816000905550600101620002ea565b5090565b614b9880620003186000396000f3fe608060405234801561001057600080fd5b506004361061018e5760003560e01c80636352211e116100de578063a22cb46511610097578063c87b56dd11610071578063c87b56dd146109e7578063dc8a493614610a8e578063e985e9c514610ada578063ea744ad114610b545761018e565b8063a22cb465146107eb578063b0dc78fa1461083b578063b88d4fde146108e25761018e565b80636352211e146105b15780636c0360eb1461060957806370a082311461068c57806383b91493146106e45780638a34711d1461072657806395d89b41146107685761018e565b806319720be11161014b5780632f745c59116101255780632f745c591461047157806342842e0e146104d357806342966c68146105415780634f6ccce71461056f5761018e565b806319720be11461037f5780631e010439146103c157806323b872dd146104035761018e565b806301ffc9a71461019357806306fdde03146101f6578063081812fc1461027957806308744737146102d1578063095ea7b31461031357806318160ddd14610361575b600080fd5b6101de600480360360208110156101a957600080fd5b8101908080357bffffffffffffffffffffffffffffffffffffffffffffffffffffffff19169060200190929190505050610b96565b60405180821515815260200191505060405180910390f35b6101fe610bfd565b6040518080602001828103825283818151815260200191508051906020019080838360005b8381101561023e578082015181840152602081019050610223565b50505050905090810190601f16801561026b5780820380516001836020036101000a031916815260200191505b509250505060405180910390f35b6102a56004803603602081101561028f57600080fd5b8101908080359060200190929190505050610c9f565b604051808273ffffffffffffffffffffffffffffffffffffffff16815260200191505060405180910390f35b6102fd600480360360208110156102e757600080fd5b8101908080359060200190929190505050610d3a565b6040518082815260200191505060405180910390f35b61035f6004803603604081101561032957600080fd5b81019080803573ffffffffffffffffffffffffffffffffffffffff16906020019092919080359060200190929190505050610d57565b005b610369610e9b565b6040518082815260200191505060405180910390f35b6103ab6004803603602081101561039557600080fd5b8101908080359060200190929190505050610eac565b6040518082815260200191505060405180910390f35b6103ed600480360360208110156103d757600080fd5b8101908080359060200190929190505050610ec9565b6040518082815260200191505060405180910390f35b61046f6004803603606081101561041957600080fd5b81019080803573ffffffffffffffffffffffffffffffffffffffff169060200190929190803573ffffffffffffffffffffffffffffffffffffffff16906020019092919080359060200190929190505050610ee6565b005b6104bd6004803603604081101561048757600080fd5b81019080803573ffffffffffffffffffffffffffffffffffffffff16906020019092919080359060200190929190505050610f5c565b6040518082815260200191505060405180910390f35b61053f600480360360608110156104e957600080fd5b81019080803573ffffffffffffffffffffffffffffffffffffffff169060200190929190803573ffffffffffffffffffffffffffffffffffffffff16906020019092919080359060200190929190505050610fb7565b005b61056d6004803603602081101561055757600080fd5b8101908080359060200190929190505050610fd7565b005b61059b6004803603602081101561058557600080fd5b81019080803590602001909291905050506112d4565b6040518082815260200191505060405180910390f35b6105dd600480360360208110156105c757600080fd5b81019080803590602001909291905050506112f7565b604051808273ffffffffffffffffffffffffffffffffffffffff16815260200191505060405180910390f35b61061161132e565b6040518080602001828103825283818151815260200191508051906020019080838360005b83811015610651578082015181840152602081019050610636565b50505050905090810190601f16801561067e5780820380516001836020036101000a031916815260200191505b509250505060405180910390f35b6106ce600480360360208110156106a257600080fd5b81019080803573ffffffffffffffffffffffffffffffffffffffff1690602001909291905050506113d0565b6040518082815260200191505060405180910390f35b610710600480360360208110156106fa57600080fd5b81019080803590602001909291905050506114a5565b6040518082815260200191505060405180910390f35b6107526004803603602081101561073c57600080fd5b81019080803590602001909291905050506114cd565b6040518082815260200191505060405180910390f35b6107706114ea565b6040518080602001828103825283818151815260200191508051906020019080838360005b838110156107b0578082015181840152602081019050610795565b50505050905090810190601f1680156107dd5780820380516001836020036101000a031916815260200191505b509250505060405180910390f35b6108396004803603604081101561080157600080fd5b81019080803573ffffffffffffffffffffffffffffffffffffffff16906020019092919080351515906020019092919050505061158c565b005b6108676004803603602081101561085157600080fd5b8101908080359060200190929190505050611742565b6040518080602001828103825283818151815260200191508051906020019080838360005b838110156108a757808201518184015260208101905061088c565b50505050905090810190601f1680156108d45780820380516001836020036101000a031916815260200191505b509250505060405180910390f35b6109e5600480360360808110156108f857600080fd5b81019080803573ffffffffffffffffffffffffffffffffffffffff169060200190929190803573ffffffffffffffffffffffffffffffffffffffff169060200190929190803590602001909291908035906020019064010000000081111561095f57600080fd5b82018360208201111561097157600080fd5b8035906020019184600183028401116401000000008311171561099357600080fd5b91908080601f016020809104026020016040519081016040528093929190818152602001838380828437600081840152601f19601f820116905080830192505050505050509192919290505050611857565b005b610a13600480360360208110156109fd57600080fd5b81019080803590602001909291905050506118cf565b6040518080602001828103825283818151815260200191508051906020019080838360005b83811015610a53578082015181840152602081019050610a38565b50505050905090810190601f168015610a805780820380516001836020036101000a031916815260200191505b509250505060405180910390f35b610ac460048036036040811015610aa457600080fd5b810190808035906020019092919080359060200190929190505050611ba0565b6040518082815260200191505060405180910390f35b610b3c60048036036040811015610af057600080fd5b81019080803573ffffffffffffffffffffffffffffffffffffffff169060200190929190803573ffffffffffffffffffffffffffffffffffffffff1690602001909291905050506120c6565b60405180821515815260200191505060405180910390f35b610b8060048036036020811015610b6a57600080fd5b810190808035906020019092919050505061215a565b6040518082815260200191505060405180910390f35b6000806000837bffffffffffffffffffffffffffffffffffffffffffffffffffffffff19167bffffffffffffffffffffffffffffffffffffffffffffffffffffffff1916815260200190815260200160002060009054906101000a900460ff169050919050565b606060068054600181600116156101000203166002900480601f016020809104026020016040519081016040528092919081815260200182805460018160011615610100020316600290048015610c955780601f10610c6a57610100808354040283529160200191610c95565b820191906000526020600020905b815481529060010190602001808311610c7857829003601f168201915b5050505050905090565b6000610caa82612195565b610cff576040517f08c379a000000000000000000000000000000000000000000000000000000000815260040180806020018281038252602c815260200180614a8d602c913960400191505060405180910390fd5b6004600083815260200190815260200160002060009054906101000a900473ffffffffffffffffffffffffffffffffffffffff169050919050565b6000600a6000838152602001908152602001600020549050919050565b6000610d62826112f7565b90508073ffffffffffffffffffffffffffffffffffffffff168373ffffffffffffffffffffffffffffffffffffffff161415610de9576040517f08c379a0000000000000000000000000000000000000000000000000000000008152600401808060200182810382526021815260200180614b116021913960400191505060405180910390fd5b8073ffffffffffffffffffffffffffffffffffffffff16610e086121b2565b73ffffffffffffffffffffffffffffffffffffffff161480610e375750610e3681610e316121b2565b6120c6565b5b610e8c576040517f08c379a00000000000000000000000000000000000000000000000000000000081526004018080602001828103825260388152602001806149e06038913960400191505060405180910390fd5b610e9683836121ba565b505050565b6000610ea76002612273565b905090565b6000600c6000838152602001908152602001600020549050919050565b6000600b6000838152602001908152602001600020549050919050565b610ef7610ef16121b2565b82612288565b610f4c576040517f08c379a0000000000000000000000000000000000000000000000000000000008152600401808060200182810382526031815260200180614b326031913960400191505060405180910390fd5b610f5783838361237c565b505050565b6000610faf82600160008673ffffffffffffffffffffffffffffffffffffffff1673ffffffffffffffffffffffffffffffffffffffff1681526020019081526020016000206125bf90919063ffffffff16565b905092915050565b610fd283838360405180602001604052806000815250611857565b505050565b610fe8610fe26121b2565b82612288565b61105a576040517f08c379a000000000000000000000000000000000000000000000000000000000815260040180806020018281038252601f8152602001807f4f6e6c79206f776e6572206f7220617070726f7665642063616e206275726e0081525060200191505060405180910390fd5b600d6000828152602001908152602001600020544210156110e3576040517f08c379a00000000000000000000000000000000000000000000000000000000081526004018080602001828103825260198152602001807f43616e2774206275726e20796574202d20776169742e2e2e2e0000000000000081525060200191505060405180910390fd5b6110ec816125d9565b600073b53c1a33016b2dc2ff3653530bff1848a515c8c573ffffffffffffffffffffffffffffffffffffffff16630261bf8b6040518163ffffffff1660e01b815260040160206040518083038186803b15801561114857600080fd5b505afa15801561115c573d6000803e3d6000fd5b505050506040513d602081101561117257600080fd5b810190808051906020019092919050505090508073ffffffffffffffffffffffffffffffffffffffff166369328dec736b175474e89094c44da98b954eedeac495271d0f6111bf856114a5565b336040518463ffffffff1660e01b8152600401808473ffffffffffffffffffffffffffffffffffffffff1681526020018381526020018273ffffffffffffffffffffffffffffffffffffffff1681526020019350505050602060405180830381600087803b15801561123057600080fd5b505af1158015611244573d6000803e3d6000fd5b505050506040513d602081101561125a57600080fd5b8101908080519060200190929190505050506000600a6000848152602001908152602001600020819055506000600b6000848152602001908152602001600020819055506000600c6000848152602001908152602001600020819055506000600d6000848152602001908152602001600020819055505050565b6000806112eb83600261271390919063ffffffff16565b50905080915050919050565b600061132782604051806060016040528060298152602001614a4260299139600261273f9092919063ffffffff16565b9050919050565b606060098054600181600116156101000203166002900480601f0160208091040260200160405190810160405280929190818152602001828054600181600116156101000203166002900480156113c65780601f1061139b576101008083540402835291602001916113c6565b820191906000526020600020905b8154815290600101906020018083116113a957829003601f168201915b5050505050905090565b60008073ffffffffffffffffffffffffffffffffffffffff168273ffffffffffffffffffffffffffffffffffffffff161415611457576040517f08c379a000000000000000000000000000000000000000000000000000000000815260040180806020018281038252602a815260200180614a18602a913960400191505060405180910390fd5b61149e600160008473ffffffffffffffffffffffffffffffffffffffff1673ffffffffffffffffffffffffffffffffffffffff16815260200190815260200160002061275e565b9050919050565b60006114c682600c6000858152602001908152602001600020544203612773565b9050919050565b6000600d6000838152602001908152602001600020549050919050565b606060078054600181600116156101000203166002900480601f0160208091040260200160405190810160405280929190818152602001828054600181600116156101000203166002900480156115825780601f1061155757610100808354040283529160200191611582565b820191906000526020600020905b81548152906001019060200180831161156557829003601f168201915b5050505050905090565b6115946121b2565b73ffffffffffffffffffffffffffffffffffffffff168273ffffffffffffffffffffffffffffffffffffffff161415611635576040517f08c379a00000000000000000000000000000000000000000000000000000000081526004018080602001828103825260198152602001807f4552433732313a20617070726f766520746f2063616c6c65720000000000000081525060200191505060405180910390fd5b80600560006116426121b2565b73ffffffffffffffffffffffffffffffffffffffff1673ffffffffffffffffffffffffffffffffffffffff16815260200190815260200160002060008473ffffffffffffffffffffffffffffffffffffffff1673ffffffffffffffffffffffffffffffffffffffff16815260200190815260200160002060006101000a81548160ff0219169083151502179055508173ffffffffffffffffffffffffffffffffffffffff166116ef6121b2565b73ffffffffffffffffffffffffffffffffffffffff167f17307eab39ab6107e8899845ad3d59bd9653f200f220920489ca2b5937696c318360405180821515815260200191505060405180910390a35050565b606061174d82612195565b61178e576040518060400160405280600481526020017ff09f94a5000000000000000000000000000000000000000000000000000000008152509050611852565b6117b0670de0b6b3a76400006117a3846114a5565b816117aa57fe5b046128f1565b6040516020018080613e9b610b459139610b450182805190602001908083835b602083106117f357805182526020820191506020810190506020830392506117d0565b6001836020036101000a038019825116818451168082178552505050505050905001807f4441493c2f746578743e3c2f7376673e0000000000000000000000000000000081525060100191505060405160208183030381529060405290505b919050565b6118686118626121b2565b83612288565b6118bd576040517f08c379a0000000000000000000000000000000000000000000000000000000008152600401808060200182810382526031815260200180614b326031913960400191505060405180910390fd5b6118c984848484612a41565b50505050565b60606118da82612195565b61192f576040517f08c379a000000000000000000000000000000000000000000000000000000000815260040180806020018281038252602f815260200180614ae2602f913960400191505060405180910390fd5b6060600860008481526020019081526020016000208054600181600116156101000203166002900480601f0160208091040260200160405190810160405280929190818152602001828054600181600116156101000203166002900480156119d85780601f106119ad576101008083540402835291602001916119d8565b820191906000526020600020905b8154815290600101906020018083116119bb57829003601f168201915b5050505050905060606119e961132e565b90506000815114156119ff578192505050611b9b565b600082511115611ad05780826040516020018083805190602001908083835b60208310611a415780518252602082019150602081019050602083039250611a1e565b6001836020036101000a03801982511681845116808217855250505050505090500182805190602001908083835b60208310611a925780518252602082019150602081019050602083039250611a6f565b6001836020036101000a0380198251168184511680821785525050505050509050019250505060405160208183030381529060405292505050611b9b565b80611ada85612ab3565b6040516020018083805190602001908083835b60208310611b105780518252602082019150602081019050602083039250611aed565b6001836020036101000a03801982511681845116808217855250505050505090500182805190602001908083835b60208310611b615780518252602082019150602081019050602083039250611b3e565b6001836020036101000a03801982511681845116808217855250505050505090500192505050604051602081830303815290604052925050505b919050565b6000808311611c17576040517f08c379a000000000000000000000000000000000000000000000000000000000815260040180806020018281038252601c8152602001807f416d6f756e74206d75737420626520626967676572207468616e20300000000081525060200191505060405180910390fd5b428211611c6f576040517f08c379a0000000000000000000000000000000000000000000000000000000008152600401808060200182810382526026815260200180613dcd6026913960400191505060405180910390fd5b736b175474e89094c44da98b954eedeac495271d0f73ffffffffffffffffffffffffffffffffffffffff166323b872dd3330866040518463ffffffff1660e01b8152600401808473ffffffffffffffffffffffffffffffffffffffff1681526020018373ffffffffffffffffffffffffffffffffffffffff1681526020018281526020019350505050602060405180830381600087803b158015611d1257600080fd5b505af1158015611d26573d6000803e3d6000fd5b505050506040513d6020811015611d3c57600080fd5b810190808051906020019092919050505050600073b53c1a33016b2dc2ff3653530bff1848a515c8c573ffffffffffffffffffffffffffffffffffffffff16630261bf8b6040518163ffffffff1660e01b815260040160206040518083038186803b158015611daa57600080fd5b505afa158015611dbe573d6000803e3d6000fd5b505050506040513d6020811015611dd457600080fd5b81019080805190602001909291905050509050736b175474e89094c44da98b954eedeac495271d0f73ffffffffffffffffffffffffffffffffffffffff1663095ea7b382866040518363ffffffff1660e01b8152600401808373ffffffffffffffffffffffffffffffffffffffff16815260200182815260200192505050602060405180830381600087803b158015611e6c57600080fd5b505af1158015611e80573d6000803e3d6000fd5b505050506040513d6020811015611e9657600080fd5b8101908080519060200190929190505050508073ffffffffffffffffffffffffffffffffffffffff1663e8eda9df736b175474e89094c44da98b954eedeac495271d0f863060006040518563ffffffff1660e01b8152600401808573ffffffffffffffffffffffffffffffffffffffff1681526020018481526020018373ffffffffffffffffffffffffffffffffffffffff168152602001828152602001945050505050600060405180830381600087803b158015611f5457600080fd5b505af1158015611f68573d6000803e3d6000fd5b505050506000611f76610e9b565b905084600a6000838152602001908152602001600020600082825401925050819055506120618273ffffffffffffffffffffffffffffffffffffffff1663d15e0053736b175474e89094c44da98b954eedeac495271d0f6040518263ffffffff1660e01b8152600401808273ffffffffffffffffffffffffffffffffffffffff16815260200191505060206040518083038186803b15801561201757600080fd5b505afa15801561202b573d6000803e3d6000fd5b505050506040513d602081101561204157600080fd5b810190808051906020019092919050505086612bfa90919063ffffffff16565b600b60008381526020019081526020016000206000828254019250508190555042600c60008381526020019081526020016000208190555083600d6000838152602001908152602001600020819055506120bb3382612e27565b809250505092915050565b6000600560008473ffffffffffffffffffffffffffffffffffffffff1673ffffffffffffffffffffffffffffffffffffffff16815260200190815260200160002060008373ffffffffffffffffffffffffffffffffffffffff1673ffffffffffffffffffffffffffffffffffffffff16815260200190815260200160002060009054906101000a900460ff16905092915050565b600061218e82600c600085815260200190815260200160002054600d60008681526020019081526020016000205403612773565b9050919050565b60006121ab826002612e4590919063ffffffff16565b9050919050565b600033905090565b816004600083815260200190815260200160002060006101000a81548173ffffffffffffffffffffffffffffffffffffffff021916908373ffffffffffffffffffffffffffffffffffffffff160217905550808273ffffffffffffffffffffffffffffffffffffffff1661222d836112f7565b73ffffffffffffffffffffffffffffffffffffffff167f8c5be1e5ebec7d5bd14f71427d1e84f3dd0314c0f7b2291e5b200ac8c7c3b92560405160405180910390a45050565b600061228182600001612e5f565b9050919050565b600061229382612195565b6122e8576040517f08c379a000000000000000000000000000000000000000000000000000000000815260040180806020018281038252602c815260200180613e6f602c913960400191505060405180910390fd5b60006122f3836112f7565b90508073ffffffffffffffffffffffffffffffffffffffff168473ffffffffffffffffffffffffffffffffffffffff16148061236257508373ffffffffffffffffffffffffffffffffffffffff1661234a84610c9f565b73ffffffffffffffffffffffffffffffffffffffff16145b80612373575061237281856120c6565b5b91505092915050565b8273ffffffffffffffffffffffffffffffffffffffff1661239c826112f7565b73ffffffffffffffffffffffffffffffffffffffff1614612408576040517f08c379a0000000000000000000000000000000000000000000000000000000008152600401808060200182810382526029815260200180614ab96029913960400191505060405180910390fd5b600073ffffffffffffffffffffffffffffffffffffffff168273ffffffffffffffffffffffffffffffffffffffff16141561248e576040517f08c379a0000000000000000000000000000000000000000000000000000000008152600401808060200182810382526024815260200180613e256024913960400191505060405180910390fd5b612499838383612e70565b6124a46000826121ba565b6124f581600160008673ffffffffffffffffffffffffffffffffffffffff1673ffffffffffffffffffffffffffffffffffffffff168152602001908152602001600020612e7590919063ffffffff16565b5061254781600160008573ffffffffffffffffffffffffffffffffffffffff1673ffffffffffffffffffffffffffffffffffffffff168152602001908152602001600020612e8f90919063ffffffff16565b5061255e81836002612ea99092919063ffffffff16565b50808273ffffffffffffffffffffffffffffffffffffffff168473ffffffffffffffffffffffffffffffffffffffff167fddf252ad1be2c89b69c2b068fc378daa952ba7f163c4a11628f55a4df523b3ef60405160405180910390a4505050565b60006125ce8360000183612ede565b60001c905092915050565b60006125e4826112f7565b90506125f281600084612e70565b6125fd6000836121ba565b6000600860008481526020019081526020016000208054600181600116156101000203166002900490501461264c5760086000838152602001908152602001600020600061264b9190613d45565b5b61269d82600160008473ffffffffffffffffffffffffffffffffffffffff1673ffffffffffffffffffffffffffffffffffffffff168152602001908152602001600020612e7590919063ffffffff16565b506126b2826002612f6190919063ffffffff16565b5081600073ffffffffffffffffffffffffffffffffffffffff168273ffffffffffffffffffffffffffffffffffffffff167fddf252ad1be2c89b69c2b068fc378daa952ba7f163c4a11628f55a4df523b3ef60405160405180910390a45050565b6000806000806127268660000186612f7b565b915091508160001c8160001c9350935050509250929050565b6000612752846000018460001b84613014565b60001c90509392505050565b600061276c8260000161310a565b9050919050565b60008073b53c1a33016b2dc2ff3653530bff1848a515c8c573ffffffffffffffffffffffffffffffffffffffff16630261bf8b6040518163ffffffff1660e01b815260040160206040518083038186803b1580156127d057600080fd5b505afa1580156127e4573d6000803e3d6000fd5b505050506040513d60208110156127fa57600080fd5b810190808051906020019092919050505090506128e88173ffffffffffffffffffffffffffffffffffffffff1663d15e0053736b175474e89094c44da98b954eedeac495271d0f6040518263ffffffff1660e01b8152600401808273ffffffffffffffffffffffffffffffffffffffff16815260200191505060206040518083038186803b15801561288b57600080fd5b505afa15801561289f573d6000803e3d6000fd5b505050506040513d60208110156128b557600080fd5b8101908080519060200190929190505050600b60008781526020019081526020016000205461311b90919063ffffffff16565b91505092915050565b60606000821415612939576040518060400160405280600181526020017f30000000000000000000000000000000000000000000000000000000000000008152509050612a3c565b600082905060005b60008214612963578080600101915050600a828161295b57fe5b049150612941565b60608167ffffffffffffffff8111801561297c57600080fd5b506040519080825280601f01601f1916602001820160405280156129af5781602001600182028036833780820191505090505b50905060008290505b60008614612a34576001810390506000600a8088816129d357fe5b04028703603001905060008160f81b9050808484815181106129f157fe5b60200101907effffffffffffffffffffffffffffffffffffffffffffffffffffffffffffff1916908160001a905350600a8881612a2a57fe5b04975050506129b8565b819450505050505b919050565b612a4c84848461237c565b612a5884848484613294565b612aad576040517f08c379a0000000000000000000000000000000000000000000000000000000008152600401808060200182810382526032815260200180613df36032913960400191505060405180910390fd5b50505050565b60606000821415612afb576040518060400160405280600181526020017f30000000000000000000000000000000000000000000000000000000000000008152509050612bf5565b600082905060005b60008214612b25578080600101915050600a8281612b1d57fe5b049150612b03565b60608167ffffffffffffffff81118015612b3e57600080fd5b506040519080825280601f01601f191660200182016040528015612b715781602001600182028036833780820191505090505b50905060006001830390508593505b60008414612bed57600a8481612b9257fe5b0660300160f81b82828060019003935081518110612bac57fe5b60200101907effffffffffffffffffffffffffffffffffffffffffffffffffffffffffffff1916908160001a905350600a8481612be557fe5b049350612b80565b819450505050505b919050565b6000808214156040518060400160405280600281526020017f353000000000000000000000000000000000000000000000000000000000000081525090612cdc576040517f08c379a00000000000000000000000000000000000000000000000000000000081526004018080602001828103825283818151815260200191508051906020019080838360005b83811015612ca1578082015181840152602081019050612c86565b50505050905090810190601f168015612cce5780820380516001836020036101000a031916815260200191505b509250505060405180910390fd5b50600060028381612ce957fe5b0490506b033b2e3c9fd0803ce8000000817fffffffffffffffffffffffffffffffffffffffffffffffffffffffffffffffff0381612d2357fe5b048411156040518060400160405280600281526020017f343800000000000000000000000000000000000000000000000000000000000081525090612e03576040517f08c379a00000000000000000000000000000000000000000000000000000000081526004018080602001828103825283818151815260200191508051906020019080838360005b83811015612dc8578082015181840152602081019050612dad565b50505050905090810190601f168015612df55780820380516001836020036101000a031916815260200191505b509250505060405180910390fd5b5082816b033b2e3c9fd0803ce800000086020181612e1d57fe5b0491505092915050565b612e418282604051806020016040528060008152506134ad565b5050565b6000612e57836000018360001b61351e565b905092915050565b600081600001805490509050919050565b505050565b6000612e87836000018360001b613541565b905092915050565b6000612ea1836000018360001b613629565b905092915050565b6000612ed5846000018460001b8473ffffffffffffffffffffffffffffffffffffffff1660001b613699565b90509392505050565b600081836000018054905011612f3f576040517f08c379a0000000000000000000000000000000000000000000000000000000008152600401808060200182810382526022815260200180613dab6022913960400191505060405180910390fd5b826000018281548110612f4e57fe5b9060005260206000200154905092915050565b6000612f73836000018360001b613775565b905092915050565b60008082846000018054905011612fdd576040517f08c379a0000000000000000000000000000000000000000000000000000000008152600401808060200182810382526022815260200180614a6b6022913960400191505060405180910390fd5b6000846000018481548110612fee57fe5b906000526020600020906002020190508060000154816001015492509250509250929050565b600080846001016000858152602001908152602001600020549050600081141583906130db576040517f08c379a00000000000000000000000000000000000000000000000000000000081526004018080602001828103825283818151815260200191508051906020019080838360005b838110156130a0578082015181840152602081019050613085565b50505050905090810190601f1680156130cd5780820380516001836020036101000a031916815260200191505b509250505060405180910390fd5b508460000160018203815481106130ee57fe5b9060005260206000209060020201600101549150509392505050565b600081600001805490509050919050565b60008083148061312b5750600082145b15613139576000905061328e565b8160026b033b2e3c9fd0803ce80000008161315057fe5b047fffffffffffffffffffffffffffffffffffffffffffffffffffffffffffffffff038161317a57fe5b048311156040518060400160405280600281526020017f34380000000000000000000000000000000000000000000000000000000000008152509061325a576040517f08c379a00000000000000000000000000000000000000000000000000000000081526004018080602001828103825283818151815260200191508051906020019080838360005b8381101561321f578082015181840152602081019050613204565b50505050905090810190601f16801561324c5780820380516001836020036101000a031916815260200191505b509250505060405180910390fd5b506b033b2e3c9fd0803ce800000060026b033b2e3c9fd0803ce80000008161327e57fe5b04838502018161328a57fe5b0490505b92915050565b60006132b58473ffffffffffffffffffffffffffffffffffffffff1661388e565b6132c257600190506134a5565b606061342c63150b7a0260e01b6132d76121b2565b888787604051602401808573ffffffffffffffffffffffffffffffffffffffff1681526020018473ffffffffffffffffffffffffffffffffffffffff16815260200183815260200180602001828103825283818151815260200191508051906020019080838360005b8381101561335b578082015181840152602081019050613340565b50505050905090810190601f1680156133885780820380516001836020036101000a031916815260200191505b5095505050505050604051602081830303815290604052907bffffffffffffffffffffffffffffffffffffffffffffffffffffffff19166020820180517bffffffffffffffffffffffffffffffffffffffffffffffffffffffff8381831617835250505050604051806060016040528060328152602001613df3603291398773ffffffffffffffffffffffffffffffffffffffff166138a19092919063ffffffff16565b9050600081806020019051602081101561344557600080fd5b8101908080519060200190929190505050905063150b7a0260e01b7bffffffffffffffffffffffffffffffffffffffffffffffffffffffff1916817bffffffffffffffffffffffffffffffffffffffffffffffffffffffff191614925050505b949350505050565b6134b783836138b9565b6134c46000848484613294565b613519576040517f08c379a0000000000000000000000000000000000000000000000000000000008152600401808060200182810382526032815260200180613df36032913960400191505060405180910390fd5b505050565b600080836001016000848152602001908152602001600020541415905092915050565b6000808360010160008481526020019081526020016000205490506000811461361d576000600182039050600060018660000180549050039050600086600001828154811061358c57fe5b90600052602060002001549050808760000184815481106135a957fe5b90600052602060002001819055506001830187600101600083815260200190815260200160002081905550866000018054806135e157fe5b60019003818190600052602060002001600090559055866001016000878152602001908152602001600020600090556001945050505050613623565b60009150505b92915050565b60006136358383613aad565b61368e578260000182908060018154018082558091505060019003906000526020600020016000909190919091505582600001805490508360010160008481526020019081526020016000208190555060019050613693565b600090505b92915050565b60008084600101600085815260200190815260200160002054905060008114156137405784600001604051806040016040528086815260200185815250908060018154018082558091505060019003906000526020600020906002020160009091909190915060008201518160000155602082015181600101555050846000018054905085600101600086815260200190815260200160002081905550600191505061376e565b8285600001600183038154811061375357fe5b90600052602060002090600202016001018190555060009150505b9392505050565b6000808360010160008481526020019081526020016000205490506000811461388257600060018203905060006001866000018054905003905060008660000182815481106137c057fe5b90600052602060002090600202019050808760000184815481106137e057fe5b906000526020600020906002020160008201548160000155600182015481600101559050506001830187600101600083600001548152602001908152602001600020819055508660000180548061383357fe5b6001900381819060005260206000209060020201600080820160009055600182016000905550509055866001016000878152602001908152602001600020600090556001945050505050613888565b60009150505b92915050565b600080823b905060008111915050919050565b60606138b08484600085613ad0565b90509392505050565b600073ffffffffffffffffffffffffffffffffffffffff168273ffffffffffffffffffffffffffffffffffffffff16141561395c576040517f08c379a00000000000000000000000000000000000000000000000000000000081526004018080602001828103825260208152602001807f4552433732313a206d696e7420746f20746865207a65726f206164647265737381525060200191505060405180910390fd5b61396581612195565b156139d8576040517f08c379a000000000000000000000000000000000000000000000000000000000815260040180806020018281038252601c8152602001807f4552433732313a20746f6b656e20616c7265616479206d696e7465640000000081525060200191505060405180910390fd5b6139e460008383612e70565b613a3581600160008573ffffffffffffffffffffffffffffffffffffffff1673ffffffffffffffffffffffffffffffffffffffff168152602001908152602001600020612e8f90919063ffffffff16565b50613a4c81836002612ea99092919063ffffffff16565b50808273ffffffffffffffffffffffffffffffffffffffff16600073ffffffffffffffffffffffffffffffffffffffff167fddf252ad1be2c89b69c2b068fc378daa952ba7f163c4a11628f55a4df523b3ef60405160405180910390a45050565b600080836001016000848152602001908152602001600020541415905092915050565b606082471015613b2b576040517f08c379a0000000000000000000000000000000000000000000000000000000008152600401808060200182810382526026815260200180613e496026913960400191505060405180910390fd5b613b348561388e565b613ba6576040517f08c379a000000000000000000000000000000000000000000000000000000000815260040180806020018281038252601d8152602001807f416464726573733a2063616c6c20746f206e6f6e2d636f6e747261637400000081525060200191505060405180910390fd5b600060608673ffffffffffffffffffffffffffffffffffffffff1685876040518082805190602001908083835b60208310613bf65780518252602082019150602081019050602083039250613bd3565b6001836020036101000a03801982511681845116808217855250505050505090500191505060006040518083038185875af1925050503d8060008114613c58576040519150601f19603f3d011682016040523d82523d6000602084013e613c5d565b606091505b5091509150613c6d828286613c79565b92505050949350505050565b60608315613c8957829050613d3e565b600083511115613c9c5782518084602001fd5b816040517f08c379a00000000000000000000000000000000000000000000000000000000081526004018080602001828103825283818151815260200191508051906020019080838360005b83811015613d03578082015181840152602081019050613ce8565b50505050905090810190601f168015613d305780820380516001836020036101000a031916815260200191505b509250505060405180910390fd5b9392505050565b50805460018160011615610100020316600290046000825580601f10613d6b5750613d8a565b601f016020900490600052602060002090810190613d899190613d8d565b5b50565b5b80821115613da6576000816000905550600101613d8e565b509056fe456e756d657261626c655365743a20696e646578206f7574206f6620626f756e6473556e6c6f636b2074696d657374616d70206d75737420626520696e20746865206675747572654552433732313a207472616e7366657220746f206e6f6e20455243373231526563656976657220696d706c656d656e7465724552433732313a207472616e7366657220746f20746865207a65726f2061646472657373416464726573733a20696e73756666696369656e742062616c616e636520666f722063616c6c4552433732313a206f70657261746f7220717565727920666f72206e6f6e6578697374656e7420746f6b656e3c7376672077696474683d2233373422206865696768743d22353939222076696577426f783d223020302033373420353939222066696c6c3d226e6f6e652220786d6c6e733d22687474703a2f2f7777772e77332e6f72672f323030302f737667223e3c7061746820643d224d333520313048333339433335322e383037203130203336342032312e31393239203336342033355635363443333634203537372e383037203335322e3830372035383920333339203538394833354332312e3139323920353839203130203537372e383037203130203536345633354331302032312e313932392032312e313932392031302033352031305a222066696c6c3d222338373735414322207374726f6b653d222334343431334422207374726f6b652d77696474683d223230222f3e202020203c67207374796c653d226d69782d626c656e642d6d6f64653a6d756c7469706c79223e20202020202020203c7061746820643d224d31382036354331382034382e343331352033312e3433313520333520343820333548333235433334312e353639203335203335352034382e3433313520333535203635563134382e39373343333535203136302e383338203334382e393836203137312e383832203333382e343237203137372e323934433331312e373033203139302e393933203235352e30383520323135203138362e3520323135433131372e393135203231352036312e32393638203139302e3939332033342e35373236203137372e3239344332342e30313433203137312e383832203138203136302e383338203138203134382e3937335636355a222066696c6c3d2223423635303945222f3e202020203c2f673e202020203c7061746820643d224d3130203133324332392e37323136203135312e3333332039312e3633373520313930203138312e35323820313930433237312e34313920313930203333392e393634203135312e333333203336332031333222207374726f6b653d222334343431334422207374726f6b652d77696474683d22323022207374726f6b652d6c696e656361703d22726f756e6422207374726f6b652d6c696e656a6f696e3d22726f756e64222f3e202020203c7061746820643d224d3235362031373843323536203231362e313038203232352e313038203234372031383720323437433134382e3839322032343720313138203231362e313038203131382031373843313138203133392e383932203134382e383932203130392031383720313039433232352e3130382031303920323536203133392e38393220323536203137385a222066696c6c3d222332464239433622207374726f6b653d222334343431334422207374726f6b652d77696474683d223230222f3e202020203c7061746820643d224d323035203136392e343437433230342e373937203135392e303431203139362e333339203135302e373938203138362e313333203135312e303034433137362e323035203135312e3231203136382e323033203135392e333520313638203136392e34343743313638203136392e34393920313638203136392e35353120313638203136392e363032563136392e383835563230332e393133433136382e303531203230352e303733203136382e393838203230352e393734203137302e313237203230352e393233433137312e323136203230352e383937203137322e303737203230342e393935203137322e313033203230332e393133563139372e383334433137322e313033203139362e363735203137332e303134203139352e373438203137342e313534203139352e373438433137352e323934203139352e373438203137362e323035203139362e363735203137362e323035203139372e383334563230302e373139433137362e323035203230312e383739203137372e313137203230322e383036203137382e323537203230322e383036433137392e333936203230322e383036203138302e333038203230312e383739203138302e333038203230302e373139563139372e383334433138302e333038203139362e363735203138312e3232203139352e373438203138322e333539203139352e373438433138332e343939203139352e373438203138342e343131203139362e363735203138342e343131203139372e383334563139382e363333433138342e343131203139392e373932203138352e333232203230302e373139203138362e343632203230302e373139433138372e363032203230302e373139203138382e353133203139392e373932203138382e353133203139382e363333563139372e383334433138382e353634203139362e363735203138392e353031203139352e373734203139302e363431203139352e383235433139312e3733203139352e383531203139322e353931203139362e373532203139322e363136203139372e383334563230302e373139433139322e363136203230312e383739203139332e353238203230322e383036203139342e363637203230322e383036433139352e383037203230322e383036203139362e373139203230312e383739203139362e373139203230302e373139563139372e383334433139362e373139203139362e363735203139372e3633203139352e373438203139382e3737203139352e373438433139392e3931203139352e373438203230302e383231203139362e363735203230302e383231203139372e383334563230332e393133433230302e383231203230352e303733203230312e37333320323036203230322e38373320323036433230342e30313220323036203230342e393234203230352e303733203230342e393234203230332e393133563136392e35373643323035203136392e35353120323035203136392e34393920323035203136392e3434375a4d3137392e363735203137322e343631433137372e383531203137322e343631203137362e333833203137302e373335203137362e333833203136382e363233433137362e333833203136362e353131203137372e383531203136342e373835203137392e363735203136342e373835433138312e343938203136342e373835203138322e393637203136362e353131203138322e393637203136382e363233433138322e393637203137302e373335203138312e343938203137322e343631203137392e363735203137322e3436315a4d3138362e363339203137372e383731433138342e393933203137372e383731203138332e363531203137362e383636203138332e363531203137352e3633433138332e363531203137342e333933203138342e393933203137352e3134203138362e363339203137352e3134433138382e323835203137352e3134203138392e363238203137342e333933203138392e363238203137352e3633433138392e363238203137362e383636203138382e323835203137372e383731203138362e363339203137372e3837315a4d3139332e333235203137322e343631433139312e353032203137322e343631203139302e303333203137302e373335203139302e303333203136382e363233433139302e303333203136362e353131203139312e353032203136342e373835203139332e333235203136342e373835433139352e313439203136342e373835203139362e363137203136362e353131203139362e363137203136382e363233433139362e363137203137302e373335203139352e313439203137322e343631203139332e333235203137322e3436315a222066696c6c3d227768697465222f3e3c7465787420666f6e742d66616d696c793d22417269616c2c2048656c7665746963612c2073616e732d73657269662220666f6e742d7765696768743d22626f6c64222066696c6c3d2277686974652220666f6e742d73697a653d2233342220793d223339352220783d22313135223e4552433732313a20617070726f76652063616c6c6572206973206e6f74206f776e6572206e6f7220617070726f76656420666f7220616c6c4552433732313a2062616c616e636520717565727920666f7220746865207a65726f20616464726573734552433732313a206f776e657220717565727920666f72206e6f6e6578697374656e7420746f6b656e456e756d657261626c654d61703a20696e646578206f7574206f6620626f756e64734552433732313a20617070726f76656420717565727920666f72206e6f6e6578697374656e7420746f6b656e4552433732313a207472616e73666572206f6620746f6b656e2074686174206973206e6f74206f776e4552433732314d657461646174613a2055524920717565727920666f72206e6f6e6578697374656e7420746f6b656e4552433732313a20617070726f76616c20746f2063757272656e74206f776e65724552433732313a207472616e736665722063616c6c6572206973206e6f74206f776e6572206e6f7220617070726f766564a2646970667358221220dce4e03dd9b2a032ae401871f4d78559af62c9219c19dd814ebd5d99d8a546ba64736f6c634300060c0033",
  "linkReferences": {},
  "deployedLinkReferences": {}
}