{
  "_format": "hh-sol-artifact-1",
  "contractName": "RedAavelopes",
  "sourceName": "contracts/RedAavelopes.sol",
  "abi": [
    {
      "inputs": [],
      "stateMutability": "nonpayable",
      "type": "constructor"
    },
    {
      "anonymous": false,
      "inputs": [
        {
          "indexed": true,
          "internalType": "address",
          "name": "owner",
          "type": "address"
        },
        {
          "indexed": true,
          "internalType": "address",
          "name": "approved",
          "type": "address"
        },
        {
          "indexed": true,
          "internalType": "uint256",
          "name": "tokenId",
          "type": "uint256"
        }
      ],
      "name": "Approval",
      "type": "event"
    },
    {
      "anonymous": false,
      "inputs": [
        {
          "indexed": true,
          "internalType": "address",
          "name": "owner",
          "type": "address"
        },
        {
          "indexed": true,
          "internalType": "address",
          "name": "operator",
          "type": "address"
        },
        {
          "indexed": false,
          "internalType": "bool",
          "name": "approved",
          "type": "bool"
        }
      ],
      "name": "ApprovalForAll",
      "type": "event"
    },
    {
      "anonymous": false,
      "inputs": [
        {
          "indexed": true,
          "internalType": "address",
          "name": "from",
          "type": "address"
        },
        {
          "indexed": true,
          "internalType": "address",
          "name": "to",
          "type": "address"
        },
        {
          "indexed": true,
          "internalType": "uint256",
          "name": "tokenId",
          "type": "uint256"
        }
      ],
      "name": "Transfer",
      "type": "event"
    },
    {
      "inputs": [
        {
          "internalType": "address",
          "name": "to",
          "type": "address"
        },
        {
          "internalType": "uint256",
          "name": "tokenId",
          "type": "uint256"
        }
      ],
      "name": "approve",
      "outputs": [],
      "stateMutability": "nonpayable",
      "type": "function"
    },
    {
      "inputs": [
        {
          "internalType": "address",
          "name": "owner",
          "type": "address"
        }
      ],
      "name": "balanceOf",
      "outputs": [
        {
          "internalType": "uint256",
          "name": "",
          "type": "uint256"
        }
      ],
      "stateMutability": "view",
      "type": "function"
    },
    {
      "inputs": [],
      "name": "baseURI",
      "outputs": [
        {
          "internalType": "string",
          "name": "",
          "type": "string"
        }
      ],
      "stateMutability": "view",
      "type": "function"
    },
    {
      "inputs": [
        {
          "internalType": "uint256",
          "name": "_tokenId",
          "type": "uint256"
        }
      ],
      "name": "burn",
      "outputs": [],
      "stateMutability": "nonpayable",
      "type": "function"
    },
    {
      "inputs": [
        {
          "internalType": "uint256",
          "name": "tokenId",
          "type": "uint256"
        }
      ],
      "name": "getApproved",
      "outputs": [
        {
          "internalType": "address",
          "name": "",
          "type": "address"
        }
      ],
      "stateMutability": "view",
      "type": "function"
    },
    {
      "inputs": [
        {
          "internalType": "uint256",
          "name": "_tokenId",
          "type": "uint256"
        }
      ],
      "name": "getBalance",
      "outputs": [
        {
          "internalType": "uint256",
          "name": "",
          "type": "uint256"
        }
      ],
      "stateMutability": "view",
      "type": "function"
    },
    {
      "inputs": [
        {
          "internalType": "uint256",
          "name": "_tokenId",
          "type": "uint256"
        }
      ],
      "name": "getDepositTimestamp",
      "outputs": [
        {
          "internalType": "uint256",
          "name": "",
          "type": "uint256"
        }
      ],
      "stateMutability": "view",
      "type": "function"
    },
    {
      "inputs": [
        {
          "internalType": "uint256",
          "name": "_tokenId",
          "type": "uint256"
        }
      ],
      "name": "getSvg",
      "outputs": [
        {
          "internalType": "string",
          "name": "",
          "type": "string"
        }
      ],
      "stateMutability": "view",
      "type": "function"
    },
    {
      "inputs": [
        {
          "internalType": "uint256",
          "name": "_tokenId",
          "type": "uint256"
        }
      ],
      "name": "getUnlockTimestamp",
      "outputs": [
        {
          "internalType": "uint256",
          "name": "",
          "type": "uint256"
        }
      ],
      "stateMutability": "view",
      "type": "function"
    },
    {
      "inputs": [
        {
          "internalType": "address",
          "name": "owner",
          "type": "address"
        },
        {
          "internalType": "address",
          "name": "operator",
          "type": "address"
        }
      ],
      "name": "isApprovedForAll",
      "outputs": [
        {
          "internalType": "bool",
          "name": "",
          "type": "bool"
        }
      ],
      "stateMutability": "view",
      "type": "function"
    },
    {
      "inputs": [
        {
          "internalType": "uint256",
          "name": "_amount",
          "type": "uint256"
        },
        {
          "internalType": "uint256",
          "name": "_unlockTimestamp",
          "type": "uint256"
        }
      ],
      "name": "mintWithDai",
      "outputs": [
        {
          "internalType": "uint256",
          "name": "",
          "type": "uint256"
        }
      ],
      "stateMutability": "nonpayable",
      "type": "function"
    },
    {
      "inputs": [],
      "name": "name",
      "outputs": [
        {
          "internalType": "string",
          "name": "",
          "type": "string"
        }
      ],
      "stateMutability": "view",
      "type": "function"
    },
    {
      "inputs": [
        {
          "internalType": "uint256",
          "name": "tokenId",
          "type": "uint256"
        }
      ],
      "name": "ownerOf",
      "outputs": [
        {
          "internalType": "address",
          "name": "",
          "type": "address"
        }
      ],
      "stateMutability": "view",
      "type": "function"
    },
    {
      "inputs": [
        {
          "internalType": "address",
          "name": "from",
          "type": "address"
        },
        {
          "internalType": "address",
          "name": "to",
          "type": "address"
        },
        {
          "internalType": "uint256",
          "name": "tokenId",
          "type": "uint256"
        }
      ],
      "name": "safeTransferFrom",
      "outputs": [],
      "stateMutability": "nonpayable",
      "type": "function"
    },
    {
      "inputs": [
        {
          "internalType": "address",
          "name": "from",
          "type": "address"
        },
        {
          "internalType": "address",
          "name": "to",
          "type": "address"
        },
        {
          "internalType": "uint256",
          "name": "tokenId",
          "type": "uint256"
        },
        {
          "internalType": "bytes",
          "name": "_data",
          "type": "bytes"
        }
      ],
      "name": "safeTransferFrom",
      "outputs": [],
      "stateMutability": "nonpayable",
      "type": "function"
    },
    {
      "inputs": [
        {
          "internalType": "address",
          "name": "operator",
          "type": "address"
        },
        {
          "internalType": "bool",
          "name": "approved",
          "type": "bool"
        }
      ],
      "name": "setApprovalForAll",
      "outputs": [],
      "stateMutability": "nonpayable",
      "type": "function"
    },
    {
      "inputs": [
        {
          "internalType": "bytes4",
          "name": "interfaceId",
          "type": "bytes4"
        }
      ],
      "name": "supportsInterface",
      "outputs": [
        {
          "internalType": "bool",
          "name": "",
          "type": "bool"
        }
      ],
      "stateMutability": "view",
      "type": "function"
    },
    {
      "inputs": [],
      "name": "symbol",
      "outputs": [
        {
          "internalType": "string",
          "name": "",
          "type": "string"
        }
      ],
      "stateMutability": "view",
      "type": "function"
    },
    {
      "inputs": [
        {
          "internalType": "uint256",
          "name": "index",
          "type": "uint256"
        }
      ],
      "name": "tokenByIndex",
      "outputs": [
        {
          "internalType": "uint256",
          "name": "",
          "type": "uint256"
        }
      ],
      "stateMutability": "view",
      "type": "function"
    },
    {
      "inputs": [
        {
          "internalType": "address",
          "name": "owner",
          "type": "address"
        },
        {
          "internalType": "uint256",
          "name": "index",
          "type": "uint256"
        }
      ],
      "name": "tokenOfOwnerByIndex",
      "outputs": [
        {
          "internalType": "uint256",
          "name": "",
          "type": "uint256"
        }
      ],
      "stateMutability": "view",
      "type": "function"
    },
    {
      "inputs": [
        {
          "internalType": "uint256",
          "name": "tokenId",
          "type": "uint256"
        }
      ],
      "name": "tokenURI",
      "outputs": [
        {
          "internalType": "string",
          "name": "",
          "type": "string"
        }
      ],
      "stateMutability": "view",
      "type": "function"
    },
    {
      "inputs": [],
      "name": "totalSupply",
      "outputs": [
        {
          "internalType": "uint256",
          "name": "",
          "type": "uint256"
        }
      ],
      "stateMutability": "view",
      "type": "function"
    },
    {
      "inputs": [
        {
          "internalType": "address",
          "name": "from",
          "type": "address"
        },
        {
          "internalType": "address",
          "name": "to",
          "type": "address"
        },
        {
          "internalType": "uint256",
          "name": "tokenId",
          "type": "uint256"
        }
      ],
      "name": "transferFrom",
      "outputs": [],
      "stateMutability": "nonpayable",
      "type": "function"
    }
  ],
  "bytecode": "0x60806040523480156200001157600080fd5b506040518060400160405280600d81526020017f52656420416176656c6f706573000000000000000000000000000000000000008152506040518060400160405280600781526020017f5245444141564500000000000000000000000000000000000000000000000000815250620000966301ffc9a760e01b6200015960201b60201c565b8160069080519060200190620000ae92919062000262565b508060079080519060200190620000c792919062000262565b50620000e06380ac58cd60e01b6200015960201b60201c565b620000f8635b5e139f60e01b6200015960201b60201c565b6200011063780e9d6360e01b6200015960201b60201c565b505033600d60006101000a81548173ffffffffffffffffffffffffffffffffffffffff021916908373ffffffffffffffffffffffffffffffffffffffff16021790555062000308565b63ffffffff60e01b817bffffffffffffffffffffffffffffffffffffffffffffffffffffffff19161415620001f6576040517f08c379a000000000000000000000000000000000000000000000000000000000815260040180806020018281038252601c8152602001807f4552433136353a20696e76616c696420696e746572666163652069640000000081525060200191505060405180910390fd5b6001600080837bffffffffffffffffffffffffffffffffffffffffffffffffffffffff19167bffffffffffffffffffffffffffffffffffffffffffffffffffffffff1916815260200190815260200160002060006101000a81548160ff02191690831515021790555050565b828054600181600116156101000203166002900490600052602060002090601f016020900481019282601f10620002a557805160ff1916838001178555620002d6565b82800160010185558215620002d6579182015b82811115620002d5578251825591602001919060010190620002b8565b5b509050620002e59190620002e9565b5090565b5b8082111562000304576000816000905550600101620002ea565b5090565b61449380620003186000396000f3fe608060405234801561001057600080fd5b506004361061014d5760003560e01c80634f6ccce7116100c3578063a22cb4651161007c578063a22cb46514610726578063b0dc78fa14610776578063b88d4fde1461081d578063c87b56dd14610922578063dc8a4936146109c9578063e985e9c514610a155761014d565b80634f6ccce7146104ec5780636352211e1461052e5780636c0360eb1461058657806370a08231146106095780638a34711d1461066157806395d89b41146106a35761014d565b806319720be11161011557806319720be1146102fc5780631e0104391461033e57806323b872dd146103805780632f745c59146103ee57806342842e0e1461045057806342966c68146104be5761014d565b806301ffc9a71461015257806306fdde03146101b5578063081812fc14610238578063095ea7b31461029057806318160ddd146102de575b600080fd5b61019d6004803603602081101561016857600080fd5b8101908080357bffffffffffffffffffffffffffffffffffffffffffffffffffffffff19169060200190929190505050610a8f565b60405180821515815260200191505060405180910390f35b6101bd610af6565b6040518080602001828103825283818151815260200191508051906020019080838360005b838110156101fd5780820151818401526020810190506101e2565b50505050905090810190601f16801561022a5780820380516001836020036101000a031916815260200191505b509250505060405180910390f35b6102646004803603602081101561024e57600080fd5b8101908080359060200190929190505050610b98565b604051808273ffffffffffffffffffffffffffffffffffffffff16815260200191505060405180910390f35b6102dc600480360360408110156102a657600080fd5b81019080803573ffffffffffffffffffffffffffffffffffffffff16906020019092919080359060200190929190505050610c33565b005b6102e6610d77565b6040518082815260200191505060405180910390f35b6103286004803603602081101561031257600080fd5b8101908080359060200190929190505050610d88565b6040518082815260200191505060405180910390f35b61036a6004803603602081101561035457600080fd5b8101908080359060200190929190505050610da5565b6040518082815260200191505060405180910390f35b6103ec6004803603606081101561039657600080fd5b81019080803573ffffffffffffffffffffffffffffffffffffffff169060200190929190803573ffffffffffffffffffffffffffffffffffffffff16906020019092919080359060200190929190505050610dc2565b005b61043a6004803603604081101561040457600080fd5b81019080803573ffffffffffffffffffffffffffffffffffffffff16906020019092919080359060200190929190505050610e38565b6040518082815260200191505060405180910390f35b6104bc6004803603606081101561046657600080fd5b81019080803573ffffffffffffffffffffffffffffffffffffffff169060200190929190803573ffffffffffffffffffffffffffffffffffffffff16906020019092919080359060200190929190505050610e93565b005b6104ea600480360360208110156104d457600080fd5b8101908080359060200190929190505050610eb3565b005b6105186004803603602081101561050257600080fd5b8101908080359060200190929190505050611197565b6040518082815260200191505060405180910390f35b61055a6004803603602081101561054457600080fd5b81019080803590602001909291905050506111ba565b604051808273ffffffffffffffffffffffffffffffffffffffff16815260200191505060405180910390f35b61058e6111f1565b6040518080602001828103825283818151815260200191508051906020019080838360005b838110156105ce5780820151818401526020810190506105b3565b50505050905090810190601f1680156105fb5780820380516001836020036101000a031916815260200191505b509250505060405180910390f35b61064b6004803603602081101561061f57600080fd5b81019080803573ffffffffffffffffffffffffffffffffffffffff169060200190929190505050611293565b6040518082815260200191505060405180910390f35b61068d6004803603602081101561067757600080fd5b8101908080359060200190929190505050611368565b6040518082815260200191505060405180910390f35b6106ab611385565b6040518080602001828103825283818151815260200191508051906020019080838360005b838110156106eb5780820151818401526020810190506106d0565b50505050905090810190601f1680156107185780820380516001836020036101000a031916815260200191505b509250505060405180910390f35b6107746004803603604081101561073c57600080fd5b81019080803573ffffffffffffffffffffffffffffffffffffffff169060200190929190803515159060200190929190505050611427565b005b6107a26004803603602081101561078c57600080fd5b81019080803590602001909291905050506115dd565b6040518080602001828103825283818151815260200191508051906020019080838360005b838110156107e25780820151818401526020810190506107c7565b50505050905090810190601f16801561080f5780820380516001836020036101000a031916815260200191505b509250505060405180910390f35b6109206004803603608081101561083357600080fd5b81019080803573ffffffffffffffffffffffffffffffffffffffff169060200190929190803573ffffffffffffffffffffffffffffffffffffffff169060200190929190803590602001909291908035906020019064010000000081111561089a57600080fd5b8201836020820111156108ac57600080fd5b803590602001918460018302840111640100000000831117156108ce57600080fd5b91908080601f016020809104026020016040519081016040528093929190818152602001838380828437600081840152601f19601f8201169050808301925050505050505091929192905050506116f2565b005b61094e6004803603602081101561093857600080fd5b810190808035906020019092919050505061176a565b6040518080602001828103825283818151815260200191508051906020019080838360005b8381101561098e578082015181840152602081019050610973565b50505050905090810190601f1680156109bb5780820380516001836020036101000a031916815260200191505b509250505060405180910390f35b6109ff600480360360408110156109df57600080fd5b810190808035906020019092919080359060200190929190505050611a3b565b6040518082815260200191505060405180910390f35b610a7760048036036040811015610a2b57600080fd5b81019080803573ffffffffffffffffffffffffffffffffffffffff169060200190929190803573ffffffffffffffffffffffffffffffffffffffff169060200190929190505050611e79565b60405180821515815260200191505060405180910390f35b6000806000837bffffffffffffffffffffffffffffffffffffffffffffffffffffffff19167bffffffffffffffffffffffffffffffffffffffffffffffffffffffff1916815260200190815260200160002060009054906101000a900460ff169050919050565b606060068054600181600116156101000203166002900480601f016020809104026020016040519081016040528092919081815260200182805460018160011615610100020316600290048015610b8e5780601f10610b6357610100808354040283529160200191610b8e565b820191906000526020600020905b815481529060010190602001808311610b7157829003601f168201915b5050505050905090565b6000610ba382611f0d565b610bf8576040517f08c379a000000000000000000000000000000000000000000000000000000000815260040180806020018281038252602c815260200180614388602c913960400191505060405180910390fd5b6004600083815260200190815260200160002060009054906101000a900473ffffffffffffffffffffffffffffffffffffffff169050919050565b6000610c3e826111ba565b90508073ffffffffffffffffffffffffffffffffffffffff168373ffffffffffffffffffffffffffffffffffffffff161415610cc5576040517f08c379a000000000000000000000000000000000000000000000000000000000815260040180806020018281038252602181526020018061440c6021913960400191505060405180910390fd5b8073ffffffffffffffffffffffffffffffffffffffff16610ce4611f2a565b73ffffffffffffffffffffffffffffffffffffffff161480610d135750610d1281610d0d611f2a565b611e79565b5b610d68576040517f08c379a00000000000000000000000000000000000000000000000000000000081526004018080602001828103825260388152602001806142db6038913960400191505060405180910390fd5b610d728383611f32565b505050565b6000610d836002611feb565b905090565b6000600b6000838152602001908152602001600020549050919050565b6000600a6000838152602001908152602001600020549050919050565b610dd3610dcd611f2a565b82612000565b610e28576040517f08c379a000000000000000000000000000000000000000000000000000000000815260040180806020018281038252603181526020018061442d6031913960400191505060405180910390fd5b610e338383836120f4565b505050565b6000610e8b82600160008673ffffffffffffffffffffffffffffffffffffffff1673ffffffffffffffffffffffffffffffffffffffff16815260200190815260200160002061233790919063ffffffff16565b905092915050565b610eae838383604051806020016040528060008152506116f2565b505050565b610ec4610ebe611f2a565b82612000565b610f36576040517f08c379a000000000000000000000000000000000000000000000000000000000815260040180806020018281038252601f8152602001807f4f6e6c79206f776e6572206f7220617070726f7665642063616e206275726e0081525060200191505060405180910390fd5b600c600082815260200190815260200160002054421015610fbf576040517f08c379a00000000000000000000000000000000000000000000000000000000081526004018080602001828103825260198152602001807f43616e2774206275726e20796574202d20776169742e2e2e2e0000000000000081525060200191505060405180910390fd5b610fc881612351565b600073b53c1a33016b2dc2ff3653530bff1848a515c8c573ffffffffffffffffffffffffffffffffffffffff16630261bf8b6040518163ffffffff1660e01b815260040160206040518083038186803b15801561102457600080fd5b505afa158015611038573d6000803e3d6000fd5b505050506040513d602081101561104e57600080fd5b810190808051906020019092919050505090508073ffffffffffffffffffffffffffffffffffffffff166369328dec736b175474e89094c44da98b954eedeac495271d0f61109b8561248b565b336040518463ffffffff1660e01b8152600401808473ffffffffffffffffffffffffffffffffffffffff1681526020018381526020018273ffffffffffffffffffffffffffffffffffffffff1681526020019350505050602060405180830381600087803b15801561110c57600080fd5b505af1158015611120573d6000803e3d6000fd5b505050506040513d602081101561113657600080fd5b8101908080519060200190929190505050506000600a6000848152602001908152602001600020819055506000600b6000848152602001908152602001600020819055506000600c6000848152602001908152602001600020819055505050565b6000806111ae8360026124b390919063ffffffff16565b50905080915050919050565b60006111ea8260405180606001604052806029815260200161433d6029913960026124df9092919063ffffffff16565b9050919050565b606060098054600181600116156101000203166002900480601f0160208091040260200160405190810160405280929190818152602001828054600181600116156101000203166002900480156112895780601f1061125e57610100808354040283529160200191611289565b820191906000526020600020905b81548152906001019060200180831161126c57829003601f168201915b5050505050905090565b60008073ffffffffffffffffffffffffffffffffffffffff168273ffffffffffffffffffffffffffffffffffffffff16141561131a576040517f08c379a000000000000000000000000000000000000000000000000000000000815260040180806020018281038252602a815260200180614313602a913960400191505060405180910390fd5b611361600160008473ffffffffffffffffffffffffffffffffffffffff1673ffffffffffffffffffffffffffffffffffffffff1681526020019081526020016000206124fe565b9050919050565b6000600c6000838152602001908152602001600020549050919050565b606060078054600181600116156101000203166002900480601f01602080910402602001604051908101604052809291908181526020018280546001816001161561010002031660029004801561141d5780601f106113f25761010080835404028352916020019161141d565b820191906000526020600020905b81548152906001019060200180831161140057829003601f168201915b5050505050905090565b61142f611f2a565b73ffffffffffffffffffffffffffffffffffffffff168273ffffffffffffffffffffffffffffffffffffffff1614156114d0576040517f08c379a00000000000000000000000000000000000000000000000000000000081526004018080602001828103825260198152602001807f4552433732313a20617070726f766520746f2063616c6c65720000000000000081525060200191505060405180910390fd5b80600560006114dd611f2a565b73ffffffffffffffffffffffffffffffffffffffff1673ffffffffffffffffffffffffffffffffffffffff16815260200190815260200160002060008473ffffffffffffffffffffffffffffffffffffffff1673ffffffffffffffffffffffffffffffffffffffff16815260200190815260200160002060006101000a81548160ff0219169083151502179055508173ffffffffffffffffffffffffffffffffffffffff1661158a611f2a565b73ffffffffffffffffffffffffffffffffffffffff167f17307eab39ab6107e8899845ad3d59bd9653f200f220920489ca2b5937696c318360405180821515815260200191505060405180910390a35050565b60606115e882611f0d565b611629576040518060400160405280600481526020017ff09f94a50000000000000000000000000000000000000000000000000000000081525090506116ed565b61164b670de0b6b3a764000061163e8461248b565b8161164557fe5b04612513565b6040516020018080613719610b709139610b700182805190602001908083835b6020831061168e578051825260208201915060208101905060208303925061166b565b6001836020036101000a038019825116818451168082178552505050505050905001807f3c2f746578743e3c2f7376673e00000000000000000000000000000000000000815250600d0191505060405160208183030381529060405290505b919050565b6117036116fd611f2a565b83612000565b611758576040517f08c379a000000000000000000000000000000000000000000000000000000000815260040180806020018281038252603181526020018061442d6031913960400191505060405180910390fd5b61176484848484612663565b50505050565b606061177582611f0d565b6117ca576040517f08c379a000000000000000000000000000000000000000000000000000000000815260040180806020018281038252602f8152602001806143dd602f913960400191505060405180910390fd5b6060600860008481526020019081526020016000208054600181600116156101000203166002900480601f0160208091040260200160405190810160405280929190818152602001828054600181600116156101000203166002900480156118735780601f1061184857610100808354040283529160200191611873565b820191906000526020600020905b81548152906001019060200180831161185657829003601f168201915b5050505050905060606118846111f1565b905060008151141561189a578192505050611a36565b60008251111561196b5780826040516020018083805190602001908083835b602083106118dc57805182526020820191506020810190506020830392506118b9565b6001836020036101000a03801982511681845116808217855250505050505090500182805190602001908083835b6020831061192d578051825260208201915060208101905060208303925061190a565b6001836020036101000a0380198251168184511680821785525050505050509050019250505060405160208183030381529060405292505050611a36565b80611975856126d5565b6040516020018083805190602001908083835b602083106119ab5780518252602082019150602081019050602083039250611988565b6001836020036101000a03801982511681845116808217855250505050505090500182805190602001908083835b602083106119fc57805182526020820191506020810190506020830392506119d9565b6001836020036101000a03801982511681845116808217855250505050505090500192505050604051602081830303815290604052925050505b919050565b6000808311611ab2576040517f08c379a000000000000000000000000000000000000000000000000000000000815260040180806020018281038252601c8152602001807f416d6f756e74206d75737420626520626967676572207468616e20300000000081525060200191505060405180910390fd5b428211611b0a576040517f08c379a000000000000000000000000000000000000000000000000000000000815260040180806020018281038252602681526020018061369d6026913960400191505060405180910390fd5b736b175474e89094c44da98b954eedeac495271d0f73ffffffffffffffffffffffffffffffffffffffff166323b872dd3330866040518463ffffffff1660e01b8152600401808473ffffffffffffffffffffffffffffffffffffffff1681526020018373ffffffffffffffffffffffffffffffffffffffff1681526020018281526020019350505050602060405180830381600087803b158015611bad57600080fd5b505af1158015611bc1573d6000803e3d6000fd5b505050506040513d6020811015611bd757600080fd5b810190808051906020019092919050505050600073b53c1a33016b2dc2ff3653530bff1848a515c8c573ffffffffffffffffffffffffffffffffffffffff16630261bf8b6040518163ffffffff1660e01b815260040160206040518083038186803b158015611c4557600080fd5b505afa158015611c59573d6000803e3d6000fd5b505050506040513d6020811015611c6f57600080fd5b81019080805190602001909291905050509050736b175474e89094c44da98b954eedeac495271d0f73ffffffffffffffffffffffffffffffffffffffff1663095ea7b382866040518363ffffffff1660e01b8152600401808373ffffffffffffffffffffffffffffffffffffffff16815260200182815260200192505050602060405180830381600087803b158015611d0757600080fd5b505af1158015611d1b573d6000803e3d6000fd5b505050506040513d6020811015611d3157600080fd5b8101908080519060200190929190505050508073ffffffffffffffffffffffffffffffffffffffff1663e8eda9df736b175474e89094c44da98b954eedeac495271d0f863060006040518563ffffffff1660e01b8152600401808573ffffffffffffffffffffffffffffffffffffffff1681526020018481526020018373ffffffffffffffffffffffffffffffffffffffff168152602001828152602001945050505050600060405180830381600087803b158015611def57600080fd5b505af1158015611e03573d6000803e3d6000fd5b505050506000611e11610d77565b9050611e1d338261281c565b84600a60008381526020019081526020016000206000828254019250508190555042600b60008381526020019081526020016000208190555083600c600083815260200190815260200160002081905550809250505092915050565b6000600560008473ffffffffffffffffffffffffffffffffffffffff1673ffffffffffffffffffffffffffffffffffffffff16815260200190815260200160002060008373ffffffffffffffffffffffffffffffffffffffff1673ffffffffffffffffffffffffffffffffffffffff16815260200190815260200160002060009054906101000a900460ff16905092915050565b6000611f2382600261283a90919063ffffffff16565b9050919050565b600033905090565b816004600083815260200190815260200160002060006101000a81548173ffffffffffffffffffffffffffffffffffffffff021916908373ffffffffffffffffffffffffffffffffffffffff160217905550808273ffffffffffffffffffffffffffffffffffffffff16611fa5836111ba565b73ffffffffffffffffffffffffffffffffffffffff167f8c5be1e5ebec7d5bd14f71427d1e84f3dd0314c0f7b2291e5b200ac8c7c3b92560405160405180910390a45050565b6000611ff982600001612854565b9050919050565b600061200b82611f0d565b612060576040517f08c379a000000000000000000000000000000000000000000000000000000000815260040180806020018281038252602c8152602001806142af602c913960400191505060405180910390fd5b600061206b836111ba565b90508073ffffffffffffffffffffffffffffffffffffffff168473ffffffffffffffffffffffffffffffffffffffff1614806120da57508373ffffffffffffffffffffffffffffffffffffffff166120c284610b98565b73ffffffffffffffffffffffffffffffffffffffff16145b806120eb57506120ea8185611e79565b5b91505092915050565b8273ffffffffffffffffffffffffffffffffffffffff16612114826111ba565b73ffffffffffffffffffffffffffffffffffffffff1614612180576040517f08c379a00000000000000000000000000000000000000000000000000000000081526004018080602001828103825260298152602001806143b46029913960400191505060405180910390fd5b600073ffffffffffffffffffffffffffffffffffffffff168273ffffffffffffffffffffffffffffffffffffffff161415612206576040517f08c379a00000000000000000000000000000000000000000000000000000000081526004018080602001828103825260248152602001806136f56024913960400191505060405180910390fd5b612211838383612865565b61221c600082611f32565b61226d81600160008673ffffffffffffffffffffffffffffffffffffffff1673ffffffffffffffffffffffffffffffffffffffff16815260200190815260200160002061286a90919063ffffffff16565b506122bf81600160008573ffffffffffffffffffffffffffffffffffffffff1673ffffffffffffffffffffffffffffffffffffffff16815260200190815260200160002061288490919063ffffffff16565b506122d68183600261289e9092919063ffffffff16565b50808273ffffffffffffffffffffffffffffffffffffffff168473ffffffffffffffffffffffffffffffffffffffff167fddf252ad1be2c89b69c2b068fc378daa952ba7f163c4a11628f55a4df523b3ef60405160405180910390a4505050565b600061234683600001836128d3565b60001c905092915050565b600061235c826111ba565b905061236a81600084612865565b612375600083611f32565b600060086000848152602001908152602001600020805460018160011615610100020316600290049050146123c4576008600083815260200190815260200160002060006123c39190613615565b5b61241582600160008473ffffffffffffffffffffffffffffffffffffffff1673ffffffffffffffffffffffffffffffffffffffff16815260200190815260200160002061286a90919063ffffffff16565b5061242a82600261295690919063ffffffff16565b5081600073ffffffffffffffffffffffffffffffffffffffff168273ffffffffffffffffffffffffffffffffffffffff167fddf252ad1be2c89b69c2b068fc378daa952ba7f163c4a11628f55a4df523b3ef60405160405180910390a45050565b60006124ac82600b6000858152602001908152602001600020544203612970565b9050919050565b6000806000806124c686600001866129c4565b915091508160001c8160001c9350935050509250929050565b60006124f2846000018460001b84612a5d565b60001c90509392505050565b600061250c82600001612b53565b9050919050565b6060600082141561255b576040518060400160405280600181526020017f3000000000000000000000000000000000000000000000000000000000000000815250905061265e565b600082905060005b60008214612585578080600101915050600a828161257d57fe5b049150612563565b60608167ffffffffffffffff8111801561259e57600080fd5b506040519080825280601f01601f1916602001820160405280156125d15781602001600182028036833780820191505090505b50905060008290505b60008614612656576001810390506000600a8088816125f557fe5b04028703603001905060008160f81b90508084848151811061261357fe5b60200101907effffffffffffffffffffffffffffffffffffffffffffffffffffffffffffff1916908160001a905350600a888161264c57fe5b04975050506125da565b819450505050505b919050565b61266e8484846120f4565b61267a84848484612b64565b6126cf576040517f08c379a00000000000000000000000000000000000000000000000000000000081526004018080602001828103825260328152602001806136c36032913960400191505060405180910390fd5b50505050565b6060600082141561271d576040518060400160405280600181526020017f30000000000000000000000000000000000000000000000000000000000000008152509050612817565b600082905060005b60008214612747578080600101915050600a828161273f57fe5b049150612725565b60608167ffffffffffffffff8111801561276057600080fd5b506040519080825280601f01601f1916602001820160405280156127935781602001600182028036833780820191505090505b50905060006001830390508593505b6000841461280f57600a84816127b457fe5b0660300160f81b828280600190039350815181106127ce57fe5b60200101907effffffffffffffffffffffffffffffffffffffffffffffffffffffffffffff1916908160001a905350600a848161280757fe5b0493506127a2565b819450505050505b919050565b612836828260405180602001604052806000815250612d7d565b5050565b600061284c836000018360001b612dee565b905092915050565b600081600001805490509050919050565b505050565b600061287c836000018360001b612e11565b905092915050565b6000612896836000018360001b612ef9565b905092915050565b60006128ca846000018460001b8473ffffffffffffffffffffffffffffffffffffffff1660001b612f69565b90509392505050565b600081836000018054905011612934576040517f08c379a000000000000000000000000000000000000000000000000000000000815260040180806020018281038252602281526020018061367b6022913960400191505060405180910390fd5b82600001828154811061294357fe5b9060005260206000200154905092915050565b6000612968836000018360001b613045565b905092915050565b60008060646301e187e0600285028161298557fe5b04600a60008781526020019081526020016000205402816129a257fe5b04600a6000868152602001908152602001600020540190508091505092915050565b60008082846000018054905011612a26576040517f08c379a00000000000000000000000000000000000000000000000000000000081526004018080602001828103825260228152602001806143666022913960400191505060405180910390fd5b6000846000018481548110612a3757fe5b906000526020600020906002020190508060000154816001015492509250509250929050565b60008084600101600085815260200190815260200160002054905060008114158390612b24576040517f08c379a00000000000000000000000000000000000000000000000000000000081526004018080602001828103825283818151815260200191508051906020019080838360005b83811015612ae9578082015181840152602081019050612ace565b50505050905090810190601f168015612b165780820380516001836020036101000a031916815260200191505b509250505060405180910390fd5b50846000016001820381548110612b3757fe5b9060005260206000209060020201600101549150509392505050565b600081600001805490509050919050565b6000612b858473ffffffffffffffffffffffffffffffffffffffff1661315e565b612b925760019050612d75565b6060612cfc63150b7a0260e01b612ba7611f2a565b888787604051602401808573ffffffffffffffffffffffffffffffffffffffff1681526020018473ffffffffffffffffffffffffffffffffffffffff16815260200183815260200180602001828103825283818151815260200191508051906020019080838360005b83811015612c2b578082015181840152602081019050612c10565b50505050905090810190601f168015612c585780820380516001836020036101000a031916815260200191505b5095505050505050604051602081830303815290604052907bffffffffffffffffffffffffffffffffffffffffffffffffffffffff19166020820180517bffffffffffffffffffffffffffffffffffffffffffffffffffffffff83818316178352505050506040518060600160405280603281526020016136c3603291398773ffffffffffffffffffffffffffffffffffffffff166131719092919063ffffffff16565b90506000818060200190516020811015612d1557600080fd5b8101908080519060200190929190505050905063150b7a0260e01b7bffffffffffffffffffffffffffffffffffffffffffffffffffffffff1916817bffffffffffffffffffffffffffffffffffffffffffffffffffffffff191614925050505b949350505050565b612d878383613189565b612d946000848484612b64565b612de9576040517f08c379a00000000000000000000000000000000000000000000000000000000081526004018080602001828103825260328152602001806136c36032913960400191505060405180910390fd5b505050565b600080836001016000848152602001908152602001600020541415905092915050565b60008083600101600084815260200190815260200160002054905060008114612eed5760006001820390506000600186600001805490500390506000866000018281548110612e5c57fe5b9060005260206000200154905080876000018481548110612e7957fe5b9060005260206000200181905550600183018760010160008381526020019081526020016000208190555086600001805480612eb157fe5b60019003818190600052602060002001600090559055866001016000878152602001908152602001600020600090556001945050505050612ef3565b60009150505b92915050565b6000612f05838361337d565b612f5e578260000182908060018154018082558091505060019003906000526020600020016000909190919091505582600001805490508360010160008481526020019081526020016000208190555060019050612f63565b600090505b92915050565b60008084600101600085815260200190815260200160002054905060008114156130105784600001604051806040016040528086815260200185815250908060018154018082558091505060019003906000526020600020906002020160009091909190915060008201518160000155602082015181600101555050846000018054905085600101600086815260200190815260200160002081905550600191505061303e565b8285600001600183038154811061302357fe5b90600052602060002090600202016001018190555060009150505b9392505050565b60008083600101600084815260200190815260200160002054905060008114613152576000600182039050600060018660000180549050039050600086600001828154811061309057fe5b90600052602060002090600202019050808760000184815481106130b057fe5b906000526020600020906002020160008201548160000155600182015481600101559050506001830187600101600083600001548152602001908152602001600020819055508660000180548061310357fe5b6001900381819060005260206000209060020201600080820160009055600182016000905550509055866001016000878152602001908152602001600020600090556001945050505050613158565b60009150505b92915050565b600080823b905060008111915050919050565b606061318084846000856133a0565b90509392505050565b600073ffffffffffffffffffffffffffffffffffffffff168273ffffffffffffffffffffffffffffffffffffffff16141561322c576040517f08c379a00000000000000000000000000000000000000000000000000000000081526004018080602001828103825260208152602001807f4552433732313a206d696e7420746f20746865207a65726f206164647265737381525060200191505060405180910390fd5b61323581611f0d565b156132a8576040517f08c379a000000000000000000000000000000000000000000000000000000000815260040180806020018281038252601c8152602001807f4552433732313a20746f6b656e20616c7265616479206d696e7465640000000081525060200191505060405180910390fd5b6132b460008383612865565b61330581600160008573ffffffffffffffffffffffffffffffffffffffff1673ffffffffffffffffffffffffffffffffffffffff16815260200190815260200160002061288490919063ffffffff16565b5061331c8183600261289e9092919063ffffffff16565b50808273ffffffffffffffffffffffffffffffffffffffff16600073ffffffffffffffffffffffffffffffffffffffff167fddf252ad1be2c89b69c2b068fc378daa952ba7f163c4a11628f55a4df523b3ef60405160405180910390a45050565b600080836001016000848152602001908152602001600020541415905092915050565b6060824710156133fb576040517f08c379a00000000000000000000000000000000000000000000000000000000081526004018080602001828103825260268152602001806142896026913960400191505060405180910390fd5b6134048561315e565b613476576040517f08c379a000000000000000000000000000000000000000000000000000000000815260040180806020018281038252601d8152602001807f416464726573733a2063616c6c20746f206e6f6e2d636f6e747261637400000081525060200191505060405180910390fd5b600060608673ffffffffffffffffffffffffffffffffffffffff1685876040518082805190602001908083835b602083106134c657805182526020820191506020810190506020830392506134a3565b6001836020036101000a03801982511681845116808217855250505050505090500191505060006040518083038185875af1925050503d8060008114613528576040519150601f19603f3d011682016040523d82523d6000602084013e61352d565b606091505b509150915061353d828286613549565b92505050949350505050565b606083156135595782905061360e565b60008351111561356c5782518084602001fd5b816040517f08c379a00000000000000000000000000000000000000000000000000000000081526004018080602001828103825283818151815260200191508051906020019080838360005b838110156135d35780820151818401526020810190506135b8565b50505050905090810190601f1680156136005780820380516001836020036101000a031916815260200191505b509250505060405180910390fd5b9392505050565b50805460018160011615610100020316600290046000825580601f1061363b575061365a565b601f016020900490600052602060002090810190613659919061365d565b5b50565b5b8082111561367657600081600090555060010161365e565b509056fe456e756d657261626c655365743a20696e646578206f7574206f6620626f756e6473556e6c6f636b2074696d657374616d70206d75737420626520696e20746865206675747572654552433732313a207472616e7366657220746f206e6f6e20455243373231526563656976657220696d706c656d656e7465724552433732313a207472616e7366657220746f20746865207a65726f20616464726573733c7376672077696474683d2233373422206865696768743d22353939222076696577426f783d223020302033373420353939222066696c6c3d226e6f6e652220786d6c6e733d22687474703a2f2f7777772e77332e6f72672f323030302f737667223e3c7061746820643d224d333520313048333339433335322e383037203130203336342032312e31393239203336342033355635363443333634203537372e383037203335322e3830372035383920333339203538394833354332312e3139323920353839203130203537372e383037203130203536345633354331302032312e313932392032312e313932392031302033352031305a222066696c6c3d222345393641344322207374726f6b653d222334343431334422207374726f6b652d77696474683d223230222f3e202020203c67207374796c653d226d69782d626c656e642d6d6f64653a6d756c7469706c79223e20202020202020203c67207374796c653d226d69782d626c656e642d6d6f64653a6d756c7469706c79223e2020202020202020202020203c7061746820643d224d31382036354331382034382e343331352033312e3433313520333520343820333548333235433334312e353639203335203335352034382e3433313520333535203635563134382e39373343333535203136302e383338203334382e393836203137312e383832203333382e343237203137372e323934433331312e373033203139302e393933203235352e30383520323135203138362e3520323135433131372e393135203231352036312e32393638203139302e3939332033342e35373236203137372e3239344332342e30313433203137312e383832203138203136302e383338203138203134382e3937335636355a222066696c6c3d2223453936413443222f3e3c2f673e3c2f673e3c7061746820643d224d3130203133324332392e37323136203135312e3333332039312e3633373520313930203138312e35323820313930433237312e34313920313930203333392e393634203135312e333333203336332031333222207374726f6b653d222334343431334422207374726f6b652d77696474683d22323022207374726f6b652d6c696e656361703d22726f756e6422207374726f6b652d6c696e656a6f696e3d22726f756e64222f3e202020203c7061746820643d224d3235362031373843323536203231362e313038203232352e313038203234372031383720323437433134382e3839322032343720313138203231362e313038203131382031373843313138203133392e383932203134382e383932203130392031383720313039433232352e3130382031303920323536203133392e38393220323536203137385a222066696c6c3d222332464239433622207374726f6b653d222334343431334422207374726f6b652d77696474683d223230222f3e202020203c7061746820643d224d323035203136392e343437433230342e373937203135392e303431203139362e333339203135302e373938203138362e313333203135312e303034433137362e323035203135312e3231203136382e323033203135392e333520313638203136392e34343743313638203136392e34393920313638203136392e35353120313638203136392e363032563136392e383835563230332e393133433136382e303531203230352e303733203136382e393838203230352e393734203137302e313237203230352e393233433137312e323136203230352e383937203137322e303737203230342e393935203137322e313033203230332e393133563139372e383334433137322e313033203139362e363735203137332e303134203139352e373438203137342e313534203139352e373438433137352e323934203139352e373438203137362e323035203139362e363735203137362e323035203139372e383334563230302e373139433137362e323035203230312e383739203137372e313137203230322e383036203137382e323537203230322e383036433137392e333936203230322e383036203138302e333038203230312e383739203138302e333038203230302e373139563139372e383334433138302e333038203139362e363735203138312e3232203139352e373438203138322e333539203139352e373438433138332e343939203139352e373438203138342e343131203139362e363735203138342e343131203139372e383334563139382e363333433138342e343131203139392e373932203138352e333232203230302e373139203138362e343632203230302e373139433138372e363032203230302e373139203138382e353133203139392e373932203138382e353133203139382e363333563139372e383334433138382e353634203139362e363735203138392e353031203139352e373734203139302e363431203139352e383235433139312e3733203139352e383531203139322e353931203139362e373532203139322e363136203139372e383334563230302e373139433139322e363136203230312e383739203139332e353238203230322e383036203139342e363637203230322e383036433139352e383037203230322e383036203139362e373139203230312e383739203139362e373139203230302e373139563139372e383334433139362e373139203139362e363735203139372e3633203139352e373438203139382e3737203139352e373438433139392e3931203139352e373438203230302e383231203139362e363735203230302e383231203139372e383334563230332e393133433230302e383231203230352e303733203230312e37333320323036203230322e38373320323036433230342e30313220323036203230342e393234203230352e303733203230342e393234203230332e393133563136392e35373643323035203136392e35353120323035203136392e34393920323035203136392e3434375a4d3137392e363735203137322e343631433137372e383531203137322e343631203137362e333833203137302e373335203137362e333833203136382e363233433137362e333833203136362e353131203137372e383531203136342e373835203137392e363735203136342e373835433138312e343938203136342e373835203138322e393637203136362e353131203138322e393637203136382e363233433138322e393637203137302e373335203138312e343938203137322e343631203137392e363735203137322e3436315a4d3138362e363339203137372e383731433138342e393933203137372e383731203138332e363531203137362e383636203138332e363531203137352e3633433138332e363531203137342e333933203138342e393933203137352e3134203138362e363339203137352e3134433138382e323835203137352e3134203138392e363238203137342e333933203138392e363238203137352e3633433138392e363238203137362e383636203138382e323835203137372e383731203138362e363339203137372e3837315a4d3139332e333235203137322e343631433139312e353032203137322e343631203139302e303333203137302e373335203139302e303333203136382e363233433139302e303333203136362e353131203139312e353032203136342e373835203139332e333235203136342e373835433139352e313439203136342e373835203139362e363137203136362e353131203139362e363137203136382e363233433139362e363137203137302e373335203139352e313439203137322e343631203139332e333235203137322e3436315a222066696c6c3d227768697465222f3e3c7465787420783d223136302220793d22323935222066696c6c3d22626c61636b2220666f6e742d66616d696c793d22417269616c2c2048656c7665746963612c2073616e732d73657269662220666f6e742d7765696768743d22626f6c642220666f6e742d73697a653d223238223e416464726573733a20696e73756666696369656e742062616c616e636520666f722063616c6c4552433732313a206f70657261746f7220717565727920666f72206e6f6e6578697374656e7420746f6b656e4552433732313a20617070726f76652063616c6c6572206973206e6f74206f776e6572206e6f7220617070726f76656420666f7220616c6c4552433732313a2062616c616e636520717565727920666f7220746865207a65726f20616464726573734552433732313a206f776e657220717565727920666f72206e6f6e6578697374656e7420746f6b656e456e756d657261626c654d61703a20696e646578206f7574206f6620626f756e64734552433732313a20617070726f76656420717565727920666f72206e6f6e6578697374656e7420746f6b656e4552433732313a207472616e73666572206f6620746f6b656e2074686174206973206e6f74206f776e4552433732314d657461646174613a2055524920717565727920666f72206e6f6e6578697374656e7420746f6b656e4552433732313a20617070726f76616c20746f2063757272656e74206f776e65724552433732313a207472616e736665722063616c6c6572206973206e6f74206f776e6572206e6f7220617070726f766564a2646970667358221220e84727dfae4a1efacfeeb1219974042201a629fb0344311f481e764163e67d7d64736f6c634300060c0033",
  "linkReferences": {},
  "deployedLinkReferences": {}
}